:100000000B308A00F32B0000FF00030E8301A100D8
:100010000A08A0008A010408A2007708A300780853
:10002000A4007908A5007A08A600831383120B1E8A
:100030001B288B1832288C308400001C21280C18B7
:100040003528220884002308F7002408F800250832
:10005000F9002608FA0020088A00210E8300FF0E0E
:100060007F0E09008A150A1200288A110A127E2FB3
:100070000A108A100A11820728340C34013406341D
:100080000C1EBC22D627CC2A54294F27C921411F38
:100090003E0500002010201450264310D724C6240B
:1000A0002900D434E536F037BA1232326D1DB01261
:1000B000E4390A00D434E536F037BA1232326D1D15
:1000C0002519E4390A000C2AC52650103A102519C2
:1000D000AE18663B0A00CE24D6224C1DA012321761
:1000E0003133760500008C21CF26C22A532A2E1DDB
:1000F000A01232173133760500018C204C2A452995
:10010000CE2044173A102519AE18663B0A008C23FE
:1001100045275F2331103A102519AE18663B0A00B7
:10012000C722CE2F46193A102519AE18663B0A0091
:100130008C214126CC2FC618201DA0123217313336
:1001400076050001C3204C265F23321DA012321712
:100150003133760500018A12EC3A683DA016BE12D2
:1001600033173233ED3900008C20CC20D2264110D9
:10017000D4224D282E0500018C20CC20D2264110FF
:100180005029C529C9274E0500010C102010D02088
:10019000D220C4202010C4220A002010A022CD2288
:1001A000D2234527C324410500010C102010532AF7
:1001B0004F282F234126CC200A000C10C62ACE211E
:1001C000C927CE20CD244527D4270A002010A020FF
:1001D000552ACF26412AC9214F0500010C10C62AF5
:1001E000CE21C927CE20CD244527D4270A002010B0
:1001F0002010A0264127D5204C050000412A451893
:100200000D050000412AAB21D7264F22C51EB2069C
:100210000A00412AAB21492841283D11B11C32175F
:10022000311B38173117B21A34110D050001412A5C
:10023000AB214928CD2AD81EB0060A00412AAB219D
:100240004928CD27C4223D180D050001412AAB21C4
:10025000D72941283D11C529501C321BB62F4129F1
:100260005A112C11EE37E337EE32633A6139221618
:100270003516B3060A00412AAB21492841283D1111
:10028000B11C3217311B38173117B21A34110D0552
:100290000001412AAB214928CD2AD81EB1060A0007
:1002A000412AAB214928D322522B4529BD182C19AC
:1002B00030180D050001412AAB214928532ACF1ED1
:1002C000B0060A0088100F3083160805F038880041
:1002D000831208150000081400000808F700080E33
:1002E0000F39F80078088316C00083120810000048
:1002F000081400000808F700080E0F39F800780805
:100300008316BF00831208100F308316080588007B
:10031000400EF700F030F70577083F04F800780842
:10032000BF00BF1F9529831263293D189A298312A4
:10033000881083163D1C9F298312881483160000A1
:10034000831208110000081083163E0EBF000F3004
:10035000BF053F08C000400EF039F7000F30831290
:1003600008057704880000000814B62908108316D1
:100370003E080F39BF003F08C000400EF039F700BB
:100380000F30831208057704880000000814C8297C
:1003900008100800B9308400831300080319DE290F
:1003A0000130F800F701F70BD329F80BD2294A30B6
:1003B000F700F70BD929DC29800BD0290800831618
:1003C00038080C3A83120319EC29063A0319F82964
:1003D000023A0319102A172A8316BD010130BE0004
:1003E0008312622102308316B9008312CA211F2AA8
:1003F00001308316B9000230BA003A0B002A032AF2
:100400004030BB00042ABB0101303902BB073B0866
:100410008038BC00BD013C08BE00831262211F2A47
:100420008316BD011030BE00831262211F2A0130E5
:100430008316BD003808BE00831262211F2A0800FF
:100440008316B5010408B4003510831B3514AE1FA4
:10045000312AB417341EB40AAD09AE09AD0A031926
:10046000AE0A2E0EF038B000B007E23EB100323EC8
:10047000B3002E080F39B107B107B307E93EB20048
:10048000B207B2072D0E0F39B207B307B20DB30D85
:10049000B309B30D2D080F39B307B00D0730AF0006
:1004A0000A30B307B203031C512AB207B103031C7D
:1004B000552AB107B003031C592AB007AF03031C28
:1004C0005D2AAF308400831307303405341384036E
:1004D0003405031D722A341A840A341A722A203011
:1004E000F7008F2A8407B330040203193417000879
:1004F000F700031D832A341B832A341A9F2AB41958
:10050000832A20308E2AB41F8B2A2D30F7008403D3
:100510003413B4138F2AB41534123030F707AE01F8
:100520000408AD002E10831B2E147708B800831228
:10053000DF2183162D08840083132E188317840A65
:10054000341F732A831208008316B3010408B20013
:100550003310831B33142C0EF038AE00AE07E23E8E
:10056000AF00323EB1002C080F39AF07AF07B1071B
:10057000E93EB000B007B0072B0E0F39B007B10746
:10058000B00DB10DB109B10D2B080F39B107AE0D8A
:100590000730AD000A30B107B003031CCB2AB00707
:1005A000AF03031CCF2AAF07AE03031CD32AAE0749
:1005B000AD03031CD72AAD30840083130730320506
:1005C00032138407B1300402031932170008F70010
:1005D000031DF22A321BF22A321A062BB219F22A12
:1005E0002030F52AB21532123030F707AC0104087A
:1005F000AB002C10831B2C147708B8008312DF216A
:1006000083162B08840083132C188317840A321F47
:10061000E22A83120800831603178C170C140000BB
:1006200000000318412B83120C087F398316031333
:10063000AC00831203170D0883160313AD00831259
:1006400003170F0883160313AE002C08B80083129B
:10065000DF2183162D08831203178D0083160313E1
:100660002E08831203178F0083168C170C140000BA
:1006700000000313AB0B3D2B3F2B0317412B6A2BC1
:10068000031783120C0D0E0D7F3983160313AC0074
:10069000831203170D0883160313AD00831203178B
:1006A0000F0883160313AE002C08B8008312DF2155
:1006B00083162D08831203178D00831603132E084B
:1006C000831203178F008D0A03198F0A83160313F1
:1006D000AB0B0C2B83120800831638080319DD2B93
:1006E000C0003C080319DD2BC00703187E2B7F30A8
:1006F000C002031CDD2B0319DD2B822B8130C007C8
:100700000318DD2B4008F700F801F901FA01390858
:10071000C400C4173A08C3003B08C2001830C00028
:10072000C101421CAB2B3F08FA07031C9D2BF90AA1
:10073000031D9D2BF80A0319C1173E08F907031C76
:10074000A42BF80A0319C1173D08BA00BA173A08D2
:10075000F8070318C117C10DF80CF90CFA0CC40CFA
:10076000C30CC20C0310C00B902B0130F707031809
:10077000DD2BF81BC22BC40DFA0DF90DF80DF70394
:100780000319DD2BC41FD32BFA0A031DD32BF90A3F
:10079000031DD32BF80A031DD32BF80CF90CFA0C0C
:1007A000F70A0319DD2B3908C1003D08C106C11F36
:1007B000DB2BF817E12BF813E12BF701F801F90116
:1007C000FA0183120800F701F801F901FA01831612
:1007D000C001C101C201C3013F083E043D043C0405
:1007E0000319222C2030C4000310B80DB90DBA0D26
:1007F000BB0DC00DC10DC20DC30D3F084302031D4B
:100800000B2C3E084202031D0B2C3D084102031D28
:100810000B2C3C084002031C1C2C3C08C0023D0869
:10082000031C3D0FC1023E08031C3E0FC2023F08DD
:10083000031C3F0FC3020314F70DF80DF90DFA0D59
:10084000C40BF42BC0308400831383120800040807
:100850008316B0002F08B2000319492C2E08BB00E4
:100860002D08BA002C08B9002B08B800BF01BE0142
:100870002030BD008230BC0083126C237A088316BE
:10088000AE007908AD007808AC007708AB00B20B79
:100890002E2C2E08BB002D08BA002C08B9002B08FE
:1008A000B8003808B63CB800FA013908BC00B917DE
:1008B0000310B90CBA0CBB0CFA0CF90CF80CF70CC1
:1008C000B80B582CBC1F6F2CF709F809F909FA0965
:1008D000F70A0319F80A0319F90A0319FA0A7A0838
:1008E000AE007908AD007808AC007708AB00AE1F09
:1008F000862CB003B016AB09AC09AD09AE09AB0A42
:100900000319AC0A0319AD0A0319AE0A3B30B7004C
:100910009A30B600CA30B500B4010A30B2002F08D0
:100920000319B00A2E08BB002D08BA002C08B90024
:100930002B08B8003708BF003608BE003508BD00D8
:100940003408BC008312E32300088316AB00840A3A
:100950000008AC00840A0008AD00840A0008AE005C
:10096000FD308407F708031DC82C2F0A3202031933
:10097000C82C30080319CA2C0F3932020319C22CB3
:100980000318022DB01B022D301BCA2C2030FC2C6A
:100990002030B005B01EDA2CB0122F08031DB003B2
:1009A0007708B0002D30B8008312DF21831630089D
:1009B000F700B0012F083202031DEA2C7708B000BF
:1009C0002E30B8008312DF2183163008F700203064
:1009D000B00500303030B01EFC2CB0122F08031DC3
:1009E000B0037708B0002D30B8008312DF218316E2
:1009F0003008F700B0013030F7077708B8008312ED
:100A0000DF2183163708BB003608BA003508B90065
:100A10003408B800BF01BE01BD010A30BC0083121A
:100A2000E3237A088316B7007908B6007808B50082
:100A30007708B400B20B922C831208008E30F700B6
:100A400083162C08F8002B08F900FA01F808031D9A
:100A5000332D7908F800F9010830F702F808031D72
:100A6000332DF7013B2D0310F81B3A2DF90DF80D2E
:100A7000F703332DF8138312080083162B0803198C
:100A8000032EB7002F080319032EB702031C4D2DA8
:100A90007F30B7070318032E532D8130B702031C94
:100AA000032E0319032E3708F700F801F901FA01A4
:100AB000B6012C08B500B5172D08B4002E08B300F8
:100AC0001930B7003208B3020318762D0130B40292
:100AD0000318762DB5020318762DB6020318762D6D
:100AE000B60AB50AB40A3208B307A82D3108B40211
:100AF0000318912D0130B5020318912DB602031889
:100B0000912DB60AB50A3108B4073208B307031CA1
:100B1000A82DB40A031DA82DB50A031DA82DB60AD9
:100B2000A82D30088038B5020318A72D0130B60271
:100B30000318A72DB60A30088038B5073108B40766
:100B4000031C852DB50A031D852DB60A852D7A1443
:100B5000B70BAB2DB62D0310B30DB40DB50DB60DFF
:100B60000310FA0DF90DF80DB80D622D381CBE2DCD
:100B70000310F80CF90CFA0CB80CC12DF70303198B
:100B8000032EB81BEA2D0310B30DB40DB50DB60D31
:100B90003208B3020318D62D0130B4020318D62D43
:100BA000B5020318D62DB602031CF92D3108B40284
:100BB0000318E12D0130B5020318E12DB602031C24
:100BC000F92D30088038B5020318EA2D0130B6023D
:100BD000031CF92DFA0A031DF92DF90A031DF92D3D
:100BE000F80A031DF92DF70A0319032EF80CF90C66
:100BF000FA0C2C08B7003008B706B71F012EF817FB
:100C0000072EF813072EF701F801F901FA018312F4
:100C10000800C508031D0F2EC6080319142E450B26
:100C2000242EC608031D242E05309500C601C501DB
:100C3000DA01D901D801D701E201E101E001DF01C8
:100C4000D601D501D401D301BD1C132F42084402A3
:100C5000031C122F031D302E430841020318122FCC
:100C600040084202031C122F031D3A2E41083F0286
:100C70000318122F3F084102C9004208CA00400869
:100C8000031C400FCA0241084302CB004408CC00B9
:100C90004208031C420FCC024B084907CD004A080A
:100CA000CE004C0803184C0FCE074E088316AC003C
:100CB00083124D088316AB0083121E258316BB01D9
:100CC000BA01B9018230B8007A08BF007908BE00C5
:100CD0007808BD007708BC0083126C237A08D20024
:100CE0007908D1007808D0007708CF005208831621
:100CF000AE00831251088316AD008312500883168C
:100D0000AC0083124F088316AB00B201B1017A30F8
:100D1000B0008830AF0083123D257A08D6007908EC
:100D2000D5007808D4007708D30052088316AE00A7
:100D3000831251088316AD00831250088316AC004D
:100D400083124F088316AB00B2012430B100743017
:100D5000B0009230AF0083123D258316AE01AD0185
:100D6000AC017F30AB007A08B2007908B100780896
:100D7000B0007708AF0083123D257A088316AE00D5
:100D80007908AD007808AC007708AB008E30F7002A
:100D90002B08F7022C08F9002D08F800F917F708BE
:100DA0000319DD2E0310F908031DD92EF8080319C5
:100DB000DD2EF90CF80CF70BD22EAC1FE42EF8093F
:100DC000F909F80A0319F90A79088312C6007808A4
:100DD000C5000130C5070318C60A46088316AC00D3
:100DE000831245088316AB00AE013C30AD001030D5
:100DF000AF00F701FA01AC0CAB0C031C052F2D085A
:100E0000F7070318FA0A2E08FA07FA0CF70CF90C80
:100E1000F80CAF0BFB2E8312E201E1017908E00030
:100E20007808DF00BD10E308031D1F2FE408031D31
:100E30001F2FE508031D1F2FE6080319652FDF0884
:100E4000031D2B2FE008031D2B2FE108031D2B2F63
:100E5000E2080319652F63085F078316AB0083124E
:100E600060088316AC00831264080318640F392FDE
:100E70003C2F8316AC07831261088316AD008312E2
:100E800065080318650F452F482F8316AD07831299
:100E900062088316AE00831266080318660F512F8E
:100EA000542F8316AE078312031083162E0C831261
:100EB000E20083162D0C8312E10083162C0C8312A2
:100EC000E00083162B0C8312DF00DF08031D752F53
:100ED000E008031D752FE108031D752FE208031DAF
:100EE000752FE601E501E401E3016208E60061080F
:100EF000E5006008E4005F08E30008000C108A11B8
:100F00000A122128831603178C170C140000000006
:100F100083120C087F390319D62F0313E700031738
:100F20000D080313E80003170F080313E900A701D6
:100F30008B1BA7178B1367088316B8008312DF215A
:100F4000A71B8B17680803178D0003136908031785
:100F50008F0083168C170C140000000083120C0DF8
:100F60000E0D7F390319D62F0313E70003170D0861
:100F70000313E80003170F080313E900A7018B1BF5
:100F8000A7178B1367088316B8008312DF21A71BEE
:100F90008B17680803178D000313690803178F0068
:100FA0008D0A03198F0A0313822F031703130800F6
:100FB000403003178D0000308F00031382274A3022
:100FC00003178D0000308F00031382270430E700E1
:100FD000A7018B1BA7178B13FA308316B900831256
:100FE000CA21A71B8B17E70BE82F8A150A12172CAB
:10100000B208031DDB282A1ADB282C08023C031D2A
:10101000DB28BE0A3D1934283E0B1C288F018E01A7
:101020000F08FA000E08F7000F087A02031D1028B7
:101030007708BF007A08C0003E08033C031D2F2834
:101040000F08FA000E08F7000F087A02031D202887
:101050007708C3007A08C400BD182F28BD14831672
:10106000011383123D1544280F08FA000E08F700FB
:101070000F087A02031D34287708C1007A08C200DD
:101080008316011783123D113E08033C031DD82827
:10109000BE0146088316AC00831245088316AB00D8
:1010A000AE013C30AD001030AF00F701FA01AC0CDE
:1010B000AB0C031C61282D08F7070318FA0A2E0849
:1010C000FA07FA0CF70CF90CF80CAF0B5728790853
:1010D000AC007808AB000C30B8008A118312DF2115
:1010E0008A151030840083162C08AE002B08AD0042
:1010F0008A11831220228A1572308316B8008A1151
:101100008312DF218A1570308316B8008A1183128A
:10111000DF218A156D308316B8008A118312DF2112
:101120008A150A308316B8008A118312DF218A15C6
:101130001030840046088316AC00831245088316DD
:10114000AB008A118312A4228A15AD3003178D00DB
:1011500000308F000310053083160313AB008A1193
:1011600083120B238A150230840056088316AE00C2
:10117000831255088316AD00831254088316AC0001
:10118000831253088316AB000230AF008A1183121A
:1011900027248A156D308316B8008A118312DF2147
:1011A0008A1573308316B8008A118312DF218A15DD
:1011B0008A1109268A158B108A110A1221280030FB
:1011C0008316880020308700FF30860083120B16BC
:1011D00083160C14C03083128B0483160117010888
:1011E000C03930388100B530831290000030F800EB
:1011F000053892007C3083169200831281010F30F3
:1012000083160805880008108810081183128810BA
:1012100008110810A7018B1BA7178B130F3083161B
:10122000B9008A118312CA218A15A71B8B170130B6
:10123000E7006708033C031C3B2903308316C0000A
:10124000400EF039F7000F3083120805770488004C
:10125000000008142B290810A7018B1BA7178B135C
:1012600005308316B9008A118312CA218A15A71B7B
:101270008B17E70A192902308316C000400EF03997
:10128000F7000F3083120805770488000000081467
:1012900049290810E7016708033C031C6629670811
:1012A0008A1138208A15E800A7018B1BA7178B131A
:1012B0008316BD01831268088316BE008A1183124B
:1012C00062218A15A71B8B17E70A4B2987018A150C
:1012D0000A12102C831603178C170C140000000040
:1012E00083120C087F390319B0290313E700031791
:1012F0000D080313E80003170F080313E90067083C
:101300000C1E80299900680803178D0003136908D3
:1013100003178F0083168C170C1400000000831233
:101320000C0D0E0D7F390319B0290313E7000317C5
:101330000D080313E80003170F080313E9006708FB
:101340000C1EA0299900680803178D000313690873
:1013500003178F008D0A03198F0A03136A290317D5
:1013600003130800FE3003178D0000308F000313B5
:101370006A210830E700A7018B1BA7178B13FA30EF
:101380008316B9008A118312CA218A15A71B8B17ED
:10139000E70BBB29023003178D0001308F000313C8
:1013A0006A21A7018B1BA7178B13C8308316B900BE
:1013B0008A118312CA218A15A71B8B1709300317BC
:1013C0008D0001308F0003136A21A7018B1BA71723
:1013D0008B13C8308316B9008A118312CA218A156B
:1013E000A71B8B17173003178D0001308F000313D5
:1013F0006A21A7018B1BA7178B13C8308316B9006E
:101400008A118312CA218A15A71B8B171E30031756
:101410008D0001308F0003136A21A7018B1BA717D2
:101420008B13C8308316B9008A118312CA218A151A
:10143000A71B8B17263003178D0001308F00031375
:101440006A210330E700A7018B1BA7178B13C83055
:101450008316B9008A118312CA218A15A71B8B171C
:10146000E70B232A3B3003178D0001308F00031355
:101470006A21A7018B1BA7178B13C8308316B900ED
:101480008A118312CA218A15A71B8B1749300317AB
:101490008D0001308F0003136A21A7018B1BA71752
:1014A0008B13C8308316B9008A118312CA218A159A
:1014B000A71B8B17503003178D0001308F000313CB
:1014C0006A21A7018B1BA7178B13C8308316B9009D
:1014D0008A118312CA218A15A71B8B175B30031749
:1014E0008D0001308F0003136A21A7018B1BA71702
:1014F0008B13C8308316B9008A118312CA218A154A
:10150000A71B8B178A150A122A2C8618A32AA70153
:101510008B1BA7178B13C8308316B9008A1183124F
:10152000CA218A15A71B8B178701B43003178D00BA
:1015300000308F008A11031382278A150130AC0016
:101540002A16AA133D100619C12AA7018B1BA7173B
:101550008B13C8308316B9008A118312CA218A15E9
:10156000A71B8B178701BC3003178D0000308F003D
:101570008A11031382278A152A160130AC00AA1398
:101580003D10061BE82AA7018B1BA7178B13C83039
:101590008316B9008A118312CA218A15A71B8B17DB
:1015A0008701C53003178D0000308F008A110313A7
:1015B00082278A15CD3003178D0000308F008A11E5
:1015C000031382278A152A160130AC00AA133D1096
:1015D000861B052BA7018B1BA7178B13C8308316FF
:1015E000B9008A118312CA218A15A71B8B1787019C
:1015F000D53003178D0000308F008A110313822726
:101600008A152A16AC01AA133D10861C0E2B061D46
:101610000E2B061F0E2B861F0E2B2A1200302A1AA5
:101620000130F8000800861A362BA7018B1BA7177C
:101630008B13C8308316B9008A118312CA218A1508
:10164000A71B8B17DD3003178D0000308F008A1128
:10165000031382278A15E63003178D0000308F00B0
:101660008A11031382278A150130AC00861E592B7C
:10167000A7018B1BA7178B13C8308316B9008A11DB
:101680008312CA218A15A71B8B17EE3003178D0012
:1016900000308F008A11031382278A15F730031751
:1016A0008D0000308F008A11031382278A150130C4
:1016B000AC000800061A6F2B861D6F2BA7018B1B31
:1016C000A7178B13C8308316B9008A118312CA2159
:1016D0008A15A71B8B170230AC00B2012A128A159B
:1016E0000A125A2CB408031D792B3308F03C031856
:1016F0007C2B0716B401B301B30A0319B40A8A1587
:101700000A126D2CEA01E9016B1083161F109F105D
:101710001F119F111F1383121F179F1783169F17E7
:1017200083121F14680DF700F70DF70DF830F70559
:101730001F08C73977049F00A7018B1BA7178B13BE
:1017400001308316B9008A118312CA218A15A71B9A
:101750008B171F151F19AA2B83161E088312E90069
:101760001E08EA006B101F1D6B146B18BB2B6B104F
:101770001F1D6B14B52B1F106908F8006A08F900CB
:1017800008000230E80082237908BA007808B9001E
:101790000330E80082237908BC007808BB00871476
:1017A000B908031DDC2BBA08031DDC2BBB08031D85
:1017B000DC2BBC080319DF2B07100715E02B0714DF
:1017C0008A150A126E2C871AF02B871EE82BE92B3C
:1017D000E52BB20A3208043C0318F02BB201AA111F
:1017E0008A150A126F2C840183131F308305193068
:1017F00083169900A6309800903083129800B201A9
:10180000B401B301AA133D10BD1183161F149F1418
:101810001F159F1107309C008312A801A901DF2822
:101820001030F700F70B122C00008A11D82F8A1500
:101830000430E700A7018B1BA7178B13FA30831620
:10184000B9008A118312CA218A15A71B8B17E70BCF
:101850001A2CB2292C080319342C013A0319472CED
:10186000033A03195B2C772C8522F808031D462CBC
:101870001323A7018B1BA7178B1364308316B900A2
:101880008A118312CA218A15A71B8B17772C8522F0
:10189000F808031D5A2CA7018B1BA7178B13643064
:1018A0008316B9008A118312CA218A15A71B8B17C8
:1018B00013235A2B772C8522F808031D762CA701B9
:1018C0008B1BA7178B1364308316B9008A11831200
:1018D000CA218A15A71B8B17722BC12BE32B320849
:1018E000E7000A168A1100280A128A15772C2A2C7A
:0218F000630093
:102000006708FA3E0318EB2D063EEE2DAA11BE0A14
:102010003D1932283E0B1A288F018E010F08FA0055
:102020000E08F7000F087A02031D0E287708BF007C
:102030007A08C0003E08033C031D2D280F08FA0053
:102040000E08F7000F087A02031D1E287708C30048
:102050007A08C400BD182D28BD14831601138312FD
:102060003D1542280F08FA000E08F7000F087A0203
:10207000031D32287708C1007A08C20083160117B1
:1020800083123D113E08033C031DD628BE014608BD
:102090008316AC00831245088316AB00AE013C30BA
:1020A000AD001030AF00F701FA01AC0CAB0C031C13
:1020B0005F282D08F7070318FA0A2E08FA07FA0C0A
:1020C000F70CF90CF80CAF0B55287908AC00780820
:1020D000AB000C30B8000A128312DF210A16103050
:1020E000840083162C08AE002B08AD000A12831260
:1020F00020220A1672308316B8000A128312DF21DA
:102100000A1670308316B8000A128312DF210A16ED
:102110006D308316B8000A128312DF210A160A30C6
:102120008316B8000A128312DF210A1610308400C9
:1021300046088316AC00831245088316AB000A12CA
:102140008312A4220A16AD3003178D0000308F00D1
:102150000310053083160313AB000A1283120B23FE
:102160000A160230840056088316AE008312550802
:102170008316AD00831254088316AC0083125308F3
:102180008316AB000230AF000A12831227240A160E
:102190006D308316B8000A128312DF210A167330DD
:1021A0008316B8000A128312DF210A16A7018B1BBF
:1021B000A7178B130A1209260A16A71B8B17EB2DDC
:1021C000AA11E8010A128A1582230A168A117908CF
:1021D000BA007808B900A7018B1BA7178B133A0820
:1021E0008316AC00831239088316AB000A128312DF
:1021F0001E250A16A71B8B17A7018B1BA7178B136E
:102200007A088316AE007908AD007808AC0077082C
:10221000AB00B201C030B1007F30B0008830AF00F9
:102220000A1283123D250A16A71B8B177708E800B0
:102230007808E9007908EA007A08EB00A7018B1B0F
:10224000A7178B136B088316BB0083126A088316CB
:10225000BA00831269088316B900831268088316CE
:10226000B800BF01BE012030BD008130BC000A12A1
:1022700083126C230A16A71B8B177708E8007808CF
:10228000E9007908EA007A08EB00733003178D0043
:1022900000308F0003100313A7018B1BA7178B13AC
:1022A0000B308316AB000A1283120B230A16A71BEE
:1022B0008B1701308400A7018B1BA7178B136B08AA
:1022C0008316AE0083126A088316AD008312690874
:1022D0008316AC00831268088316AB000130AF0090
:1022E0000A12831227240A16A71B8B17A7018B1B20
:1022F000A7178B1376308316B8000A128312DF21DA
:102300000A16A71B8B17A7018B1BA7178B130A3065
:102310008316B8000A128312DF210A16A71B8B1737
:10232000EB2DAA110130E8000A128A1582230A1641
:102330008A117908BA007808B900A7018B1BA71782
:102340008B133A088316AC00831239088316AB004E
:102350000A1283121E250A16A71B8B17A7018B1BB7
:10236000A7178B137A088316BB007908BA00780880
:10237000B9007708B800CD30BF00CC30BE004C307B
:10238000BD008030BC000A1283126C230A16A71B02
:102390008B177708E8007808E9007908EA007A08DE
:1023A000EB00A7018B1BA7178B136B088316AE00DE
:1023B00083126A088316AD00831269088316AC0085
:1023C000831268088316AB00B201C030B1007F30C1
:1023D000B0008830AF000A1283123D250A16A71BF1
:1023E0008B177708E8007808E9007908EA007A088E
:1023F000EB00A7018B1BA7178B136B088316BB0081
:1024000083126A088316BA00831269088316B9001A
:10241000831268088316B800BF01BE012030BD00DA
:102420008130BC000A1283126C230A16A71B8B177B
:102430007708E8007808E9007908EA007A08EB00F4
:102440007D3003178D0000308F0003100313A701A8
:102450008B1BA7178B130C308316AB000A12831249
:102460000B230A16A71B8B1701308400A7018B1BB7
:10247000A7178B136B088316AE0083126A088316A6
:10248000AD00831269088316AC00831268088316B6
:10249000AB000130AF000A12831227240A16A71BD3
:1024A0008B17A7018B1BA7178B1376308316B800E9
:1024B0000A128312DF210A16A71B8B17A7018B1B99
:1024C000A7178B130A308316B8000A128312DF2174
:1024D0000A16A71B8B17EB2DAA110230E8000A126F
:1024E0008A1582230A168A117908BA007808B90079
:1024F0000330E8000A128A1582230A168A11790825
:10250000BC007808BB00A7018B1BA7178B130130F9
:102510008316B9000A128312CA210A16A71B8B1749
:10252000A7018B1BA7178B133A088316AC008312E5
:1025300039088316AB000A1283121E250A16A71B40
:102540008B17A7018B1BA7178B137A088316BB0069
:102550007908BA007808B9007708B8006630BF007B
:10256000BE001630BD008430BC000A1283126C23FA
:102570000A16A71B8B177708E8007808E900790886
:10258000EA007A08EB00A7018B1BA7178B136B08D7
:102590008316AE0083126A088316AD0083126908A1
:1025A0008316AC00831268088316AB00B201C030FA
:1025B000B1007F30B0008830AF000A1283123D2591
:1025C0000A16A71B8B177708E8007808E900790836
:1025D000EA007A08EB00A7018B1BA7178B136B0887
:1025E0008316BB0083126A088316BA008312690837
:1025F0008316B900831268088316B800BF01BE01B4
:102600002030BD008130BC000A1283126C230A16F0
:10261000A71B8B177708E8007808E9007908EA001B
:102620007A08EB00873003178D0000308F0003100D
:102630000313A7018B1BA7178B130A308316AB005C
:102640000A1283120B230A16A71B8B170130840072
:10265000A7018B1BA7178B136B088316AE00831281
:102660006A088316AD00831269088316AC008312D2
:1026700068088316AB000130AF000A1283122724CA
:102680000A16A71B8B17A7018B1BA7178B13763076
:102690008316B8000A128312DF210A16A71B8B17B4
:1026A000A7018B1BA7178B130A308316B8000A12D9
:1026B0008312DF210A16A71B8B17A7018B1BA717F5
:1026C0008B133C088316AC0083123B088316AB00C7
:1026D0000A1283121E250A16A71B8B17A7018B1B34
:1026E000A7178B137A088316BB007908BA007808FD
:1026F000B9007708B8006630BF00BE001630BD00D4
:102700008430BC000A1283126C230A16A71B8B1795
:102710007708E8007808E9007908EA007A08EB0011
:10272000A7018B1BA7178B136B088316AE008312B0
:102730006A088316AD00831269088316AC00831201
:1027400068088316AB00B201C030B1007F30B00022
:102750008830AF000A1283123D250A16A71B8B177B
:102760007708E8007808E9007908EA007A08EB00C1
:10277000A7018B1BA7178B136B088316BB00831253
:102780006A088316BA00831269088316B900831297
:1027900068088316B800BF01BE012030BD0081303B
:1027A000BC000A1283126C230A16A71B8B1777082A
:1027B000E8007808E9007908EA007A08EB00903030
:1027C00003178D0000308F0003100313A7018B1B2C
:1027D000A7178B1308308316AB000A1283120B2342
:1027E0000A16A71B8B1701308400A7018B1BA717A4
:1027F0008B136B088316AE0083126A088316AD0034
:10280000831269088316AC00831268088316AB0034
:102810000130AF000A12831227240A16A71B8B1758
:10282000A7018B1BA7178B1376308316B8000A12EB
:102830008312DF210A16A71B8B17A7018B1BA71773
:102840008B130A308316B8000A128312DF210A168E
:10285000A71B8B17EB2DAA110430E8000A128A156A
:1028600082230A168A117908BA007808B90005305F
:10287000E8000A128A1582230A168A117908BC0018
:102880007808BB00A7018B1BA7178B130130831699
:10289000B9000A128312CA210A16A71B8B17A701B7
:1028A0008B1BA7178B133A088316AC0083123908C9
:1028B0008316AB000A1283121E250A16A71B8B175C
:1028C000A7018B1BA7178B137A088316BB00790807
:1028D000BA007808B9007708B8006630BF00BE00BB
:1028E0001630BD008430BC000A1283126C230A1615
:1028F000A71B8B177708E8007808E9007908EA0039
:102900007A08EB00A7018B1BA7178B136B088316A4
:10291000AE0083126A088316AD008312690883161D
:10292000AC00831268088316AB00B201C030B1005E
:102930007F30B0008830AF000A1283123D250A169E
:10294000A71B8B177708E8007808E9007908EA00E8
:102950007A08EB00A7018B1BA7178B136B08831654
:10296000BB0083126A088316BA00831269088316B3
:10297000B900831268088316B800BF01BE01203079
:10298000BD008130BC000A1283126C230A16A71BFB
:102990008B177708E8007808E9007908EA007A08D8
:1029A000EB00983003178D0000308F0003100313E5
:1029B000A7018B1BA7178B130B308316AB000A12D2
:1029C00083120B230A16A71B8B1701308400A70163
:1029D0008B1BA7178B136B088316AE0083126A0834
:1029E0008316AD00831269088316AC008312680851
:1029F0008316AB000130AF000A12831227240A1697
:102A0000A71B8B17A7018B1BA7178B137630831679
:102A1000B8000A128312DF210A16A71B8B17A70121
:102A20008B1BA7178B130A308316B8000A12831268
:102A3000DF210A16A71B8B17A7018B1BA7178B1368
:102A40003C088316AC0083123B088316AB000A12C5
:102A500083121E250A16A71B8B17A7018B1BA7170E
:102A60008B137A088316BB007908BA007808B9007E
:102A70007708B8006630BF00BE001630BD00843055
:102A8000BC000A1283126C230A16A71B8B17770847
:102A9000E8007808E9007908EA007A08EB00A70165
:102AA0008B1BA7178B136B088316AE0083126A0863
:102AB0008316AD00831269088316AC008312680880
:102AC0008316AB00B201C030B1007F30B000883057
:102AD000AF000A1283123D250A16A71B8B17770831
:102AE000E8007808E9007908EA007A08EB00A70115
:102AF0008B1BA7178B136B088316BB0083126A0806
:102B00008316BA00831269088316B9008312680815
:102B10008316B800BF01BE012030BD008130BC006B
:102B20000A1283126C230A16A71B8B177708E8007A
:102B30007808E9007908EA007A08EB00A230031768
:102B40008D0000308F0003100313A7018B1BA71704
:102B50008B1309308316AB000A1283120B230A165B
:102B6000A71B8B1701308400A7018B1BA7178B13A2
:102B70006B088316AE0083126A088316AD008312B9
:102B800069088316AC00831268088316AB00013015
:102B9000AF000A12831227240A16A71B8B17A7015E
:102BA0008B1BA7178B1376308316B8000A1283127B
:102BB000DF210A16A71B8B17A7018B1BA7178B13E7
:102BC0000A308316B8000A128312DF210A16A71BE7
:102BD0008B17EB2DEB2D8A150A12742C0A148A1010
:102BE0000A1582070628E02891296C2A2B2CEA2D49
:02400E00713F00
:00000001FF
;PIC16F877A
;CRC=67D5  CREATED="05-oct.-19 06:34"
